:020000040800F2
:100000005004002035200008C51F0008C71F000845
:10001000C91F0008CB1F0008CD1F0008000000000A
:100020000000000000000000000000006F0D00084C
:10003000CF1F0008000000001D0D0008410C000843
:100040008D2000089120000895200008D11F00088D
:100050009D200008A1200008A5200008A920000874
:10006000AD200008B1200008B5200008B920000824
:10007000BD200008C1200008C5200008C9200008D4
:10008000CD200008D1200008D5200008D920000884
:10009000DD200008E1200008E5200008E920000834
:1000A000ED200008F1200008F5200008F9200008E4
:1000B000110E00080121000805210008092100088F
:1000C0000D21000811210008152100081921000840
:1000D0001D210008212100082521000829210008F0
:1000E0002D210008312100083521000839210008A0
:1000F0003D2100082DE9FA4F83B0040015000E9E43
:100100000F9FDDF84080DDF844902000002805D1E5
:10011000DFF864154FF4037000F0F6FC052E05D3EC
:10012000DFF8541540F20D2000F0EEFC41462800A7
:1001300080B200F0A8FB8246BAF1000F78D0DAF85E
:100140003000ADB200EB8500001F83465FEADB0B99
:100150005FEACB0B1BF00700002805D0DFF818156D
:1001600040F22F2000F0D0FC280080B200904B46D7
:1001700032000399504600F0DCFA049A21005846F8
:1001800000F0D2FCCAF80000002F01D0C7F800A090
:1001900000F032FDDFF8E4040068401CDFF8DC14F6
:1001A0000860DFF8DC04006800280BD1DFF8D00419
:1001B000C0F800A0DFF8C4040068012811D100F0E5
:1001C000E7FA0EE0DFF8BC040068002809D1DFF888
:1001D000B0040068C06A864203D3DFF8A404C0F804
:1001E00000A0DFF8A4040068401CDFF89C1408603D
:1001F000DFF894040068CAF84400DFF8900400684F
:100200000121DAF82C2091400843DFF880140860BF
:100210001AF10401DFF87804DAF82C2014235A4389
:10022000104400F03DFD0120019000F0F2FC02E0DE
:100230005FF0FF300190019801280CD1DFF84404F1
:100240000068002807D0DFF838040068C06AB042B0
:1002500001D200F0C8FC019805B0BDE8F08F70B580
:1002600004000026002C2ED0DFF8280400680028A7
:1002700005D0DFF8041440F2723000F045FC00F0C5
:1002800051F8DFF81404006820180500DFF8F003C7
:100290000068001D00F02DFD00280ED1DFF8E003FE
:1002A0000068DFF8E81309680122C06A12FA00F05A
:1002B00031EA0000DFF8D4130860280000F0C4FA27
:1002C00000F052F80600002E01D100F08CFC70BD49
:1002D0001FB5002003900020029000200190002014
:1002E000009000234622DFF82C160FF2B130FFF702
:1002F00001FF0400012C0CD100F02FFD0120DFF8DC
:10030000841308600020DFF89013086000F027FCD9
:1003100007E0002C05D1DFF8041640F2F35000F09E
:10032000F3FB1FBDDFF86C030068401CDFF86413AB
:1003300008607047DFF848130968C96A002902D0CD
:10034000002108000FE0DFF848130968022902D3F2
:100350000021080007E0DFF8C8150968DFF8C425A8
:100360001268891A0800704738B50025DFF82403A1
:100370000068002805D1DFF800134FF4C66000F0D4
:10038000C3FB00F039FCDFF80C030068401EDFF807
:1003900004130860DFF8FC020068002857D1DFF87A
:1003A000DC020068002852D0DFF86C0500680028E5
:1003B0002AD0DFF86405C068C068040014F1180092
:1003C00000F097FC201D00F094FCDFF8C0020068EC
:1003D0000121E26A91400843DFF8B0120860211D54
:1003E000DFF8AC02E26A14235A43104400F058FCD0
:1003F000E06ADFF88C120968C96A8842D4D3012008
:10040000DFF824150860CFE7DFF820050068002832
:1004100014D0DFF81805006800280FD000F033F87A
:10042000002803D00120DFF800150860DFF8FC0485
:100430000068401EDFF8F4140860EAE7DFF8E8041B
:100440000068012803D10120050000F0CCFB00F07A
:10045000E0FB280032BD10B50400DFF8C4040068DA
:10046000DFF8C01409686118884204D2824940F25A
:100470002D7000F049FBDFF8AC0400682018DFF8AD
:10048000A414086010BD2DE9F0410026DFF8040235
:100490000068002840F08380DFF8FC010068401C01
:1004A000DFF8F4110860DFF8F0010768002F21D1B0
:1004B000DFF8800400680068002804D06E4940F22C
:1004C0004C7000F021FBDFF86C0400688046DFF818
:1004D00068040068DFF85C140860DFF85C04C0F8AA
:1004E0000080DFF858040068401CDFF850140860F2
:1004F00000F0FCF9DFF82804006887423CD3DFF8FD
:10050000340400680068002805D15FF0FF30DFF890
:100510001014086030E0DFF81C040068C068C06890
:10052000040060680500AF4203D2DFF8F403056001
:1005300022E0201D00F0DDFBA06A002803D014F1AA
:10054000180000F0D6FB514800680121E26A914092
:1005500008434E490860211D4D48E26A14235A435E
:10056000104400F09DFBE06A45490968C96A884269
:10057000C5D301200600C2E7454841490968C96A58
:10058000142251434058022801D301200600DFF80D
:100590009C03006800280BD100F0B5FA08E0DFF8F2
:1005A0008C030068401CDFF88413086000F0ABFA8D
:1005B000DFF874030068002801D001200600300035
:1005C000BDE8F08110B533480068002804D0012050
:1005D000DFF8541308604DE00020DFF84C1308608A
:1005E00027480068006B264909680968884207D3D4
:1005F0002348006810F134012148006800F07DFABA
:100600001422DFF83C131E480068006B00F0CEFB9C
:10061000002807D01A48006810F134011848006813
:1006200000F06BFA19480068B0FA80F0D0F11F00B2
:1006300004001748142101FB04F14058002804D19C
:100640000D4940F6680000F05FFA1149142202FBE0
:1006500004F211440800416849684160416810F1A2
:100660000802914202D14168496841604068C0680F
:100670000349086010BD00009C1E0008443D002096
:10068000343D0020503D0020603D00204C3D0020C6
:10069000503C0020643D0020483D002038B5040057
:1006A00000F0A4F8DFF89C020068022801D300F0F3
:1006B0009AFA00F021FAFFF73DFE0500152DEFD361
:1006C000FFF730FEDFF858020068DFF858120968BB
:1006D000884205D2DFF8441240F6412000F014FAB7
:1006E000FFF728FE0500152D02D3280000F0F6FBC9
:1006F000FFF73AFED4E70120DFF81C120968002951
:1007000002D00021080012E0DFF81C12096800295D
:1007100002D0002108000AE00121334A1268DFF804
:1007200010321B685B1A9A4201D102221000C0B23B
:1007300070472DE9F04104000D0016001F00002055
:100740008046B8F1100F0CD215F8080004EB080130
:1007500081F8340015F80800002802D018F10108CB
:10076000EFE7002084F84300052E01D304200600A3
:10077000E662E664201D00F090FA14F1180000F023
:100780008CFA2461D6F10500A0616462BDE8F081B5
:1007900010B500200400052C09D2DFF8A8011421AF
:1007A00001FB04F1084400F069FA641CF3E7DFF888
:1007B0009C0100F063FADFF8980100F05FFA5648F8
:1007C00000F05CFADFF88C0100F058FA064800F0FF
:1007D00055FADFF87801DFF85C110860DFF8700186
:1007E000DFF85411086010BD043D002038B5DFF873
:1007F00068010068002826D0FFF794FDDFF8540157
:100800000068002801D1012400E00024FFF7ACFDBE
:10081000002CECD100F0F0F94E48C068C06805002B
:10082000281D00F066FA42480068401E40490860F2
:1008300049480068401E4849086000F0EAF928006D
:1008400000F04BF8D3E731BD10B504003E48006816
:10085000446034480068844207D23B480068011D68
:100860003548006800F028FA0CE037480068011DA0
:100870003048006800F020FA29480068844201D21C
:100880002748046010BD2DE9F84304000D005020F6
:1008900000F038FC0600002E1CD0002D04D1A4B2BC
:1008A000A00000F02FFC00E028003063306B00282F
:1008B00005D1300000F095FC002006000AE0A4B24B
:1008C000A7005FF0A508D6F83090424639004846A8
:1008D00000F040FD3000BDE8F28310B50400206B4D
:1008E00000F07FFC200000F07CFC10BD114909687D
:1008F0000968002904D15FF0FF31094A116007E05F
:100900000C490968C968C96808004168044A11604F
:100910007047000058200008DC3C00209C1E0008A6
:1009200048000020483D0020583D0020543D002054
:10093000443D0020383D00203C3D00205C3D00202F
:1009400020200008503C0020343D0020B43C002012
:10095000C83C0020F03C0020403D002080B500F065
:1009600008F800F042FD002002BD80B500F0F1FD66
:1009700001BD00B58DB000F080FD4FF4407000F077
:100980006BFE7FF0040000F0A1FE4FF4404000F049
:10099000BBFE01213F2000F048FF01214F4800F03D
:1009A00062FF0121012000F04FFF4FF4805000F062
:1009B0007BFF102000F0BCFF0028FAD1012001903D
:1009C00000208DF8080000208DF80B0003208DF822
:1009D000090001A9424800F0BFFF0021002001F0FA
:1009E0003BF80120069000208DF81C0008208DF8AF
:1009F0001D0001208DF81E0006A801F057F8062002
:100A00008DF800000F208DF8010000208DF8020005
:100A100001208DF80300684600F023FE26208DF8A3
:100A20000C0001208DF80F0003A800F01AFEC02072
:100A3000019001208DF8080000208DF80A000020A8
:100A40008DF80B0001208DF8090001A9254800F060
:100A500083FF07220221224800F0D0FF0722032152
:100A60001F4800F0CBFF0C20049002208DF81400EA
:100A700001208DF8150000208DF8160001208DF85A
:100A8000170004A9164800F067FF4FF416500890AD
:100A90000020ADF824000020ADF826000020ADF8BD
:100AA00028000020ADF82C000C20ADF82A0008A981
:100AB0000D4801F04DF8012240F225510A4801F09D
:100AC000D1F80121084801F0BBF8802007490880CF
:100AD0004020064908800DB000BD000000000280E3
:100AE0000000024000040240004400401A0402409A
:100AF00080B500F032F9FEE7704738B504000D000C
:100B000000F02BF9FEE7704738B504000D00002017
:100B1000009000F071F80098002802D100BF00BFDB
:100B2000F9E700F076F831BD001F5FF080730360D5
:100B3000001F0160001F0FF20D03036014380260F4
:100B40002038704780B54648006810F1010F03D087
:100B50004449E320FFF7D8FF00F0FFF8FEE700B5B7
:100B600083B0414801780191FF21017001788DF82F
:100B700000109DF8001011F050013C4A117007213F
:100B80003B4A11609DF8001009060AD538490968EA
:100B9000491E374A11609DF8001049008DF8001079
:100BA000F0E7334909680902314A116030490968A0
:100BB00011F4E0612E4A1160019901702D4800681E
:100BC00050F470002B4908602A48006850F07040CB
:100BD0002849086000F037F900202149086000F03A
:100BE000D6F800200EBD5FF0805023490860BFF3A7
:100BF0004F8FBFF36F8F704780B500F0AEF8184885
:100C00000068401C16490860BFF34F8FBFF36F8F19
:100C100001BD80B512480068002804D111494FF485
:100C2000A670FFF771FF0E480068401E0C4908606F
:100C30000B480068002802D1002000F095F801BDA3
:100C400080B500F08AF8FFF71EFC002803D05FF0A3
:100C5000805009490860002000F086F801BD0000BE
:100C600008000020E81D000800E400E0683D0020C6
:100C7000283D002020ED00E004ED00E010F1080127
:100C800041605FF0FF31816010F10801C16010F137
:100C90000801016100210160704700210161704776
:100CA00042684A6093688B609368596091600861FC
:100CB00003685B1C0360704710B40B6813F1010FED
:100CC00002D10469220008E010F1080422005468EF
:100CD0002468A34201D35268F9E754684C604C6819
:100CE000A1608A60516008610468641C046010BCE3
:100CF0007047010008698A684B689A604A688B6887
:100D00005A6042688A4201D18A68426000220A61C0
:100D10000268521E0260006870470800EFF3098005
:100D2000BFF36F8F1F4B1A6820E9F00F106008B5F2
:100D30004FF0500080F31188FFF744FC4FF00000A3
:100D400080F31188BDE8084019680868B0E8F00F22
:100D500080F30988BFF36F8F7047EFF311804FF076
:100D6000500181F31188704780F3118870470D4B53
:100D700019680868B0E8F00F80F30988BFF36F8F37
:100D80004FF0000080F311884EF00D0E70470648BA
:100D90000068006880F3088862B6BFF34F8FBFF326
:100DA0006F8F00DF343D002008ED00E003000020DD
:100DB00013F0030F09D0521E22BF13F8010B11F8D4
:100DC00001CBB0EB0C00F3D07047121F22BF53F8D9
:100DD000040B51F804CB6045F7D0121D0AD200BABB
:100DE0009CFA8CFCB0EB0C0038BF6FF0000088BFA1
:100DF00001207047521E22BF13F8010B11F801CBDE
:100E0000B0EB0C00F6D0521C08BF10467047000033
:100E100080B501215FF0804000F0A1FFFFF79DFF4A
:100E2000FFF731FB002803D05FF08050AD49086028
:100E30000020FFF799FFAC480088AC49086001200A
:100E4000AB49086001BD00B585B00121012000F06B
:100E50000AFDA848006850F00100A6490860A648AD
:100E600000684FF47A71B0FBF1F0ADF80400002097
:100E7000ADF806000A2002900020ADF80C0001A990
:100E80005FF0804000F01AFF1C208DF800000F205A
:100E90008DF8010000208DF8020001208DF803007C
:100EA000684600F0DEFB012201215FF0804000F087
:100EB0004BFF00215FF0804000F032FF01215FF026
:100EC000804000F033FF4FF6FF7087490968B0FBA0
:100ED000F1F08A49086005B000BD00002DE9F84333
:100EE00004005FF01E0985480068A04202D28348D2
:100EF000006804007C4800686043050000215FF042
:100F0000804000F013FF72B6BFF34F8FBFF36F8FB7
:100F1000002077490860FFF7EEFB0700FFB2002FC3
:100F200006D101215FF0804000F000FF62B6D6E0FC
:100F3000FFB2022F11D10121012000F0DBFCFFF7ED
:100F400014FD00215FF0804000F0EAFE01215FF017
:100F5000804000F0EBFE62B6C1E05FF0804000F040
:100F6000E3FE854204D2664940F21910FFF7CCFD3A
:100F70005FF0804000F0D8FE281A05004FF6FF70A1
:100F8000854204D35E4940F22110FFF7BDFD002DDC
:100F900004D15B494FF49170FFF7B6FD290089B287
:100FA0005FF0804000F0BEFE00215FF0804000F066
:100FB000B7FE01215FF0804000F0B8FEA046B8F116
:100FC000000F0AD0C14504D20121012000F078FCB5
:100FD00003E00121002000F073FC00215FF080405D
:100FE00000F0A4FE62B6BFF34F8FBFF36F8F40488F
:100FF0000068002831D05FF0804000F095FE3A494B
:101000000968814204D23E494FF4AE70FFF77CFD7F
:101010005FF0804000F088FE33490968081A050037
:10102000B5F5803F04D3364940F26510FFF76CFDFB
:10103000002D04D132494FF4B370FFF765FD29004C
:1010400089B25FF0804000F06DFE00215FF08040CB
:1010500000F066FE601E060039E05FF0804000F0A0
:1010600063FE21490968B0FBF1F006005FF08040A3
:1010700000F05AFE1C49096801FB06F1884204D2BF
:101080001F4940F27B10FFF73FFD5FF0804000F00A
:101090004BFE1549096801FB16000500B5F5803FB8
:1010A00004D317494FF4C070FFF72EFD002D03D174
:1010B0000D4800680500761C290089B25FF0804069
:1010C00000F030FE00215FF0804000F029FE012199
:1010D0005FF0804000F02AFE3000FFF7BCF9BDE869
:1010E000F183000004ED00E0642000082C000040C3
:1010F000303D0020082004E0280000202C3D002086
:10110000681D00082DE9F04104005FF00008FFF7BA
:1011100009F987480068002801D100F099F885484E
:101120000068044253D1002C0AD083480088041977
:1011300014F0070F04D014F1080014F00701441A4A
:10114000002C44D07D480068A04240D37C48060073
:101150007B48006805006868A04205D2286800281E
:1011600002D02E002D68F6E77148006885422ED027
:1011700030687149098808448046286830606E48A4
:10118000008840006968091B884209D205EB040009
:1011900007006868001B78606C60380000F095F804
:1011A000664800686968401A6449086063480068D6
:1011B00064490968884203D2604800686149086050
:1011C00068685C4909680843686000202860FFF788
:1011D000CBF8B8F1000F01D1FFF78AFC4046BDE81B
:1011E000F08170B504002600002C30D052480088F1
:1011F00040420644350068684E490968084204D1F7
:10120000514940F23910FFF77FFC2868002804D0CC
:101210004D494FF49D70FFF777FC686845490968B0
:10122000084214D02868002811D16868414909682B
:1012300088436860FFF776F84048006869680818D6
:101240003E490860280000F040F8FFF78DF870BDB7
:1012500070B53E48C008C00006003948066000204E
:10126000374948603A4800683044050032480088F1
:10127000404205442E4805602D48007810F00700D4
:10128000002804D030494FF4BF70FFF73DFC002028
:10129000274909684860002025490968086034002A
:1012A0002B48006824490988401A6060204800687B
:1012B00020602248006820490988401A1F490860B8
:1012C0005FF000401B49086070BD10B41C4B1A0051
:1012D0001368834201D21268FAE7110053680B4485
:1012E000834204D153684468E3185360100001003E
:1012F00043680B441468A34211D113680C4C246852
:10130000A34208D0436814686468E3184360136814
:101310001B68036005E0064B1B68036001E013686F
:101320000360824200D0106010BC704700000000D3
:10133000203D0020243D00201A0D00080000002060
:10134000183D002004000020441E0008580400201E
:101350006020000862F30F2262F31F42401810F071
:10136000030308D0C91A1FD3DB0748BF00F8012DBB
:1013700028BF20F8022D130030B41446154610394A
:1013800028BF20E93C00FAD8490728BF20E90C0013
:1013900048BF40F8042D890028BF20F8022D48BF1F
:1013A00000F8012D30BC7047C91818BF00F8012D96
:1013B000CB0728BF00F8012D7047000010B50400CE
:1013C0008020144908804121134800F047FC3C204C
:1013D000FEF745FF80201149088042210E4800F0A9
:1013E0003DFC3C20FEF73BFFEAE700B585B000205E
:1013F0000390002002900020019001200090002323
:101400004FF4806206490748FEF774FEFEF760FF5E
:10141000FEE7000018040240004400401A040240A5
:1014200050200008BD13000880B57B48006850F4C8
:10143000807079490860794800687949084077499F
:101440000860754800687749084073490860724829
:10145000006830F48020704908607048006830F4FB
:101460007D006E49086000206F49086000F071F847
:101470005FF000606D49086001BD70B4002000217C
:10148000002200230024654D2D6815F00C0528006E
:101490000500002D06D0042D12D0082D14D00C2DDF
:1014A00016D03BE0624D2D68C5F342352C00012576
:1014B000661CB5404FF4004675435E4E35603AE019
:1014C0005D4D5C4E356036E05C4D5A4E356032E025
:1014D000524D2D6815F470152900504D2D6815F4E6
:1014E00040052A00564D890C695C920D521C4B4DEB
:1014F0002D6815F480352B00002B07D14E4D05FBD0
:1015000001F5B5FBF2F54B4E356006E04B4D05FBA2
:1015100001F5B5FBF2F5474E35600CE0444D2D6802
:10152000C5F342352C000125661CB5404FF400463A
:101530007543404E3560394D2D68424EC5F3031555
:10154000755D28003B4D2D68C5403A4E356070BC36
:10155000704782B000200190002000902E48006863
:1015600050F001002C4908602B48006810F0020080
:1015700000900098002803D10198B0F5A06FF3D136
:1015800025480068800702D50120009001E0002076
:101590000090009801283DD12B4800684008400089
:1015A000294908602848006830F002002649086090
:1015B0002548006830F0040023490860234800688B
:1015C00050F08050214908604FF4006020490860C5
:1015D00020480068C006FBD4104800680F49086026
:1015E0000E4800680D4908600C4800680B49086007
:1015F0000A480068800880000849086007480068B9
:1016000050F00100054908600448006810F00C0023
:101610000428F9D102B0704700380240083802406F
:101620000CC0FF88FEFFFEEE0C38024008ED00E023
:1016300004380240280000200024F40000127A0040
:101640002C00002038000020003C024024380240DA
:10165000007000400470004025490143254A116094
:10166000704770B4002300210F22C478002C21D0D1
:10167000204C246814F4E064D4F5E064240A2300C8
:10168000D3F104042100D2B21A4144788C402300E3
:101690008478144023431B01174C057863550124BB
:1016A000057815F01F05AC40144D0678761145F805
:1016B000264009E00124057815F01F05AC40104DC7
:1016C0000678761145F8264070BC7047042806D18C
:1016D0000C49096851F004010A4A116005E0094902
:1016E000096831F00401074A1160704700000000EA
:1016F0000000FA050CED00E000E400E000E100E08D
:1017000080E100E010E000E00021DFF87C211268B9
:10171000110031F460410143DFF86C211160704722
:10172000F0B4002100220023002400250026554F9C
:101730003F6817F00C0739000F00002F06D0042F68
:1017400014D0082F15D00C2F16D039E04E4F3F681B
:10175000C7F342373E00012716F1010C17FA0CF7C8
:101760004FF4004C0CFB07F7076038E0474F076069
:1017700035E0474F076032E0424F3F6817F470177B
:101780003A00404F3F6817F440073B00414F920C2E
:10179000BA5C9B0D5B1C3B4F3F6817F480373C00E5
:1017A000002C06D1394F07FB02F7B7FBF3F70760B0
:1017B00005E0374F07FB02F7B7FBF3F707600EE0D2
:1017C000314F3F68C7F342373E00012716F1010C45
:1017D00017FA0CF74FF4004C0CFB07F70760294F82
:1017E0003F6817F0F007390009092B4F7F5C3D0077
:1017F0000768EF404760234F3F6817F4E067390000
:10180000090A254F7F5C3D004768EF4087601D4F08
:101810003F6817F460573900C90A1F4F7F5C3D00CD
:101820004768EF40C760F0BC7047C9B2002905D0D7
:101830001A4A12680243194B1A6004E0174A1268E8
:101840008243164B1A607047C9B2002905D0144A6A
:1018500012680243124B1A6004E0114A1268824374
:101860000F4B1A607047C9B2002905D00D4A1268A3
:1018700002430C4B1A6004E00A4A12688243094B87
:101880001A60704708380240043802400024F4000F
:1018900000127A000C000020180000201C380240C2
:1018A00020380240243802400021284A12681100E2
:1018B00031F4C051014331F00C02244B1A607047DF
:1018C00010B40022214B1B681A00920892000243B8
:1018D0001E4B1A601E4B1B6833F004031C4C236024
:1018E000C9B2012901D130BF02E040BF20BF20BFF3
:1018F00010BC704710B40022144B1B681A009208E9
:1019000092000243114B1A60114B1B6853F0040301
:101910000F4C2360C9B2012901D130BF00E020BFC4
:101920000B4B1B6833F00403094C236010BC704759
:1019300001000020074A12680A4202D0012210006A
:1019400001E000221000C0B27047000000700040AB
:1019500010ED00E004700040F0B4002200230024E9
:10196000002500263200102A46D201269640330078
:101970000E681E4034009C423CD1066835000326A8
:101980001700FFB27F00BE40B5430E791700FFB2CB
:101990007F00BE40354305600E79012E02D00E79DE
:1019A000022E18D18668350003261700FFB27F008B
:1019B000BE40B5434E791700FFB27F00BE403543AD
:1019C00085608688350001269640B5438E7996401D
:1019D000B6B235438580C668350003261700FFB2CE
:1019E0007F00BE40B543CE791700FFB27F00BE40F6
:1019F0003543C560521CB6E7F0BC7047F0B4002315
:101A00000024D2B211F00705EDB2AD0012FA05F5CF
:101A10002B0089B2CD1000EB850589B2CE1000EB0A
:101A20008606366A0F2711F0070C5FFA8CFC5FEA16
:101A30008C0C17FA0CF7BE432E6289B2CD1000EB66
:101A400085052D6A1D432C0089B2CD1000EB85055C
:101A50002C62F0BC7047000030B400220F2311F05C
:101A60000304E4B2A400A3401A000F4BC9B28C10C7
:101A700053F8243093430C4CC9B28D1044F82530F0
:101A8000094BC9B28C1053F82430C0B211F00304D2
:101A9000E4B2A40010FA04F42343034CC9B28D103D
:101AA00044F8253030BC7047080001400021234A2B
:101AB00011008279002A36D0204A126803689A43BE
:101AC0001E4B1A601E4A126803689A431C4B1A6028
:101AD000027951180A6803681A430A60194A1268A1
:101AE00003689A43174B1A60174A126803689A43AF
:101AF000154B1A604279102A0CD1124A12680368F9
:101B00001A43104B1A60104A126803681A430E4BAE
:101B10001A600EE0094A1100427951180A680368F8
:101B20001A430A6005E0027951180A6803689A436B
:101B30000A607047054908607047000000040140D2
:101B400004040140080401400C0401401404014055
:101B50002DE9F04385B004000D005FF00009002678
:101B600000275FF00008A8890028208A814639F400
:101B70004059E88850EA0909A4F81090A0898146E4
:101B80002E4810EA0909A888298908436989084369
:101B900050EA0909A4F80C90A08A814639F44079EA
:101BA000A88950EA0909A4F814906846FFF7B8FD1F
:101BB0002148844202D10398060001E00298060001
:101BC000A089000408D5192000FB06F02968490007
:101BD000B0FBF1F0070007E0192000FB06F02968D0
:101BE0008900B0FBF1F007006420B7FBF0F00001C2
:101BF00081465FEA1910642101FB10708046A089BC
:101C000000040AD55FEAC80032306421B0FBF1F06D
:101C100010F0070050EA090909E05FEA08103230C5
:101C20006421B0FBF1F010F00F0050EA0909A4F8AC
:101C3000089005B0BDE8F08300380140F3E9FFFFEC
:101C4000C9B2002904D0828952F40052828104E092
:101C500082894DF6FF731A4082817047CA05D20D02
:101C600082807047F0B4002300240025002689B24A
:101C700040F66A17B94206000F00FFB27F09FFB2B3
:101C80003B0089B211F01F073C000127A7403D002F
:101C9000012B01D10C3604E0022B01D1103600E0FB
:101CA0001436D2B2002A03D037682F43376002E0DF
:101CB0003768AF433760F0BC7047000000220388EC
:101CC0001A00B0F1804F08D0104B984205D0104B4D
:101CD000984202D00F4B984204D14FF68F731A40AE
:101CE0004B881A430C4B984207D00C4B984204D0B7
:101CF0004FF6FF431A400B891A4302804B68C362B8
:101D00000B88038501238382704700000004004094
:101D100000080040000C004000100040001400408B
:101D200041627047C1627047406A7047C9B200297A
:101D300004D0028852F00102028004E002884FF6CB
:101D4000FE731A4002807047D2B2002A03D0838902
:101D50000B43838102E083898B438381704789B27F
:101D6000CA43028270470000483A5C467265655279
:101D7000544F535F576F726B696E675C467265654F
:101D800052544F5356382E302E305F4D6F64696673
:101D9000696564345C4672656552544F535C4465B2
:101DA0006D6F5C434F525445585F53544D33324C22
:101DB0003135325F446973636F766572795F49418B
:101DC000525C53544D33324C5F6C6F775F706F775A
:101DD00065725F7469636B5F6D616E6167656D6588
:101DE0006E742E6300000000483A5C4672656552CE
:101DF000544F535F576F726B696E675C46726565CF
:101E000052544F5356382E302E305F4D6F646966F2
:101E1000696564345C4672656552544F535C536F18
:101E2000757263655C706F727461626C655C494168
:101E3000525C41524D5F434D335C706F72742E6340
:101E400000000000483A5C4672656552544F535F8B
:101E5000576F726B696E675C4672656552544F537B
:101E600056382E302E305F576F726B696E675C4646
:101E700072656552544F535C536F757263655C7045
:101E80006F727461626C655C4D656D4D616E675C0F
:101E9000686561705F342E6300000000483A5C465C
:101EA00072656552544F535F576F726B696E675C12
:101EB0004672656552544F5356382E302E305F5758
:101EC0006F726B696E675C4672656552544F535C06
:101ED000536F757263655C7461736B732E6300007E
:101EE00019E050F8041BCB0744BFA9F101035918AE
:101EF000121F0023042A41F8043BF9D25FEA827CD6
:101F00000B4604D54FF0000CA1F800C09B1CD10774
:101F100044BF0021197050F8042B002AE1D170470A
:101F200030B5016842688468014401EB5203D2076E
:101F300048BF4C44994201D10C3030BD11F9012BFE
:101F400011F8015B002A04F8015B02D5521CF9D19B
:101F5000F0E7521EF4D5EDE710B507497944183182
:101F6000064C7C44163404E00A68081D1144884776
:101F70000146A142F8D110BD2C000000480000002D
:101F80000021020911008AB252F08002044B1B6842
:101F900013F0800373EA0202014B1A6070470000DD
:101FA0000C2800403DFFFFFF1C39000050040020BA
:101FB000000000006DFFFFFF880100007C000000B2
:101FC000000000207047FEE7FEE7FEE7FEE7FEE7C1
:101FD00080B54FF48040FFF7D3FF5FF48010FFF728
:101FE000A9FD01BD00F00BF8002801D0FFF7B4FFF8
:101FF0000020AFF30080FEF7B1FC00F002F80120F2
:10200000704700F001B800000746384600F002F8BB
:10201000FBE700002021090326311820ABBEF9E7B9
:10202000A5A5A5A5A5A5A5A5A5A5A5A5A5A5A5A560
:10203000A5A5A5A501488047014800472914000827
:1020400045200008AFF30080AFF30080FFF7CAFF20
:102050006D795F7461736B0049444C45000000006A
:10206000F837000009000000FFF7ACBFFFF7ABBF77
:10207000FFF7AABFFFF7A9BFFFF7A8BFFEF777BE1C
:10208000FFF7A5BFFEF74ABEFEF7DABDFFF7FEBFBA
:10209000FFF7FEBFFFF7FEBFFFF79ABFFFF7FEBFD8
:1020A000FFF7FEBFFFF7FEBFFFF7FEBFFFF7FEBF64
:1020B000FFF7FEBFFFF7FEBFFFF7FEBFFFF7FEBF54
:1020C000FFF7FEBFFFF7FEBFFFF7FEBFFFF7FEBF44
:1020D000FFF7FEBFFFF7FEBFFFF7FEBFFFF7FEBF34
:1020E000FFF7FEBFFFF7FEBFFFF7FEBFFFF7FEBF24
:1020F000FFF7FEBFFFF7FEBFFFF7FEBFFEF788BE8C
:10210000FFF7FEBFFFF7FEBFFFF7FEBFFFF7FEBF03
:10211000FFF7FEBFFFF7FEBFFFF7FEBFFFF7FEBFF3
:10212000FFF7FEBFFFF7FEBFFFF7FEBFFFF7FEBFE3
:10213000FFF7FEBFFFF7FEBFFFF7FEBFFFF7FEBFD3
:1021400007F8370000F8370000FCAA080304060867
:102150000C10182030F900180102030401020304D6
:10216000060708090024F400030406080C101820D0
:0E21700030F500070102030406070809FCFF12
:04000005080020458A
:00000001FF
